:020000000C2BC7
:10000800FF00030E8301AF000A08AE008A017008E2
:10001800A3007108A2007208A1007308A0000B1DBC
:100028003C2806308100FB308B052408F0002508A9
:10003800F1002608F2002708F300F00A0319F10A74
:100048000319F20A0319F30A7008A4007108A5003D
:100058007208A6007308A7002808013EF0000030C7
:100068000318013E2907F1007008A8007108A900CB
:100078002308F0002208F1002108F2002008F3000C
:0E0088002E088A002F0E8300FF0E7F0E090047
:10009600831203130E08F6000F08F7007708F40022
:1000A600F5017408F300F2017608F000F101720818
:0800B600F0047308F1040800D6
:0A00BE00831203134E089B00080094
:0A00C800831203134E089500080090
:1000D200C230831603138100063083128100FB3085
:0800E2008B058B168B1708003B
:0E00EA00831203132D088A002C0882000800E0
:1000F800831203132408F9002508FA002608FB00D8
:100108002708FC002408F5002508F6002608F70053
:100118002708F8007908F5027A08031C7A0FF60216
:100128007B08031C7B0FF7027C08031C7C0FF8027A
:100138004E08F1004F08F200F301F4017408780248
:10014800031DB02873087702031DB02872087602D1
:10015800031DB028710875020318B3288628080003
:10016800FE30831203139005CD30900510168F01D1
:100178008E0110144B207008D0007108D1004B205C
:1001880050087002F2005108031C013E7102F3008E
:100198004F087302031DD2284E0872020318D5288F
:0801A800C328FE309005080099
:1001B000C630831203130705F00011307004870066
:0201C000080035
:0E01C200C63083120313870595019B010800C8
:1001D00083120313F801F9011030FC00710DF80DC2
:1001E000F90D7408F8027508031C750FF90203185D
:1001F00000297408F80775080318750FF90703102C
:0A020000F00DF10DFC0BEE280800D4
:0A020A00FD3083120313860508007F
:08021400831203138614080095
:10021C00D8206E30CE006420CE015F208030CE001E
:10022C000230CF007C20E1205030CE000030CF00D7
:04023C007C2008001A
:1002400083120313881D2629CA0128290130CA00F8
:100250004A08CC00081D2E29CB0130290130CB00E3
:100260004B08CD00D8204C08013A031D42294D0807
:10027000013A031D42294708CE0064204708CE00FA
:100280005F2071294C08013A031D51294D08003A9D
:10029000031D51294808CE0064204908CE005F2084
:1002A00071294C08003A031D60294D08013A031DCD
:1002B00060294908CE0064204808CE005F207129DB
:1002C000E120F430CE000130CF007C20D820CE01D8
:1002D00064204808CE005F205E30CE000130CF00A1
:0402E0007C20080076
:1002E400831203131F151F1D782975291E08F40096
:1002F400F5017408F300F20183161E08F000F10101
:0A0304007208F0047308F104080009
:10030E00D8201930CE0064206E30CE005F2023300E
:0A031E00CE000030CF007C20080064
:100328000C308312031397000C309D00FA308316AB
:1003380092007D30831295007D309B00063092003C
:020348000800AB
:10034A008030831603139F00413083129F000800F8
:10035A0083120313A401A501A601A701A801A901FB
:04036A0069200800FE
:10036E008312031347080805F1007108003A0130A3
:08037E00031D0030F00008002F
:100386000C30831203130805F1007108003A01309E
:0803960003190030F00008001B
:08039E00831203130816080086
:1003A60083120313881DD929CA01DB290130CA002B
:1003B6004A08CC00081DE129CB01E3290130CB0016
:1003C6004B08CD00D8204C08013A031DF5294D08ED
:1003D600013A031DF5294708CE0064204708CE00E0
:1003E6005F20192A4C08013A031D042A4D08003AD9
:1003F600031D042A4808CE0064204908CE005F2069
:10040600192A4C08003A031D132A4D08013A031D08
:10041600132A4908CE0064204808CE005F20192A16
:0E0426004908CE0064204908CE005F2008007F
:10043400D8203C30CE0064203C30CE005F20043015
:10044400CE000130CF007C204630CE00642028301E
:10045400CE005F207C30CE000130CF007C202830DD
:10046400CE0064202830CE005F203C30CE00003027
:06047400CF007C2008000F
:10047A00D8205A30CE0064205A30CE005F200800BF
:10048A00D8204930CE0064202D30CE005F201E30A7
:0A049A00CE000030CF007C200800E7
:1004A4002E3083120313C7000930C800AA01AB0120
:1004B40000302B02031D602A64302A020318772AB5
:1004C40007174708CE004808CF00B420BF3087057F
:1004D4004708203CCE004808031C013E4E3CCF0098
:0C04E400B420AA0A0319AB0A5A2A080027
:1004F000D8201930CE0064206E30CE005F20463008
:0A050000CE000030CF007C20080080
:10050A00D8206E30CE0064201930CE005F204630ED
:0A051A00CE000030CF007C20080066
:0A052400EF3083120313880508006E
:10052E0075208A110A128000840AAC0A0319AD0ADA
:08053E00F003031D972A0800D9
:0E054600E1205030CE000030CF007C200800B5
:10055400FE30831203139005CD30900510168F01E1
:100564008E0106170A30CE000030CF00B420BF3011
:100574008605C701C801861BD42A4708F10048082C
:10058400F200C70A0319C80A7208753C031DCC2A75
:100594007108303C0318D32AFF30F000FF30F1001B
:1005A400FD2ABD2A8F018E011014C701C801861FC0
:1005B400EC2A4708F1004808F200C70A0319C80AE0
:1005C4007208EA3C031DE82A7108603C0318EB2A10
:1005D400EC2AD92AFE3090050F08F300F4017308C1
:1005E400F100F0010E08F0040030F1043A30F40098
:0805F4000030F500E8200800CA
:1005FC000C3083120313C70047080805F10071087B
:0C060C0047060130031D0030F00008001C
:1006180083120313A401A501A601A701A801A9013A
:10062800B601B701B801B901BA01BB01BC01BD01EE
:10063800BE01BF01C001C101C201C301C401C5019E
:10064800C6010130831685008130860087010F308E
:100658008800BF30860586178312850186018701C9
:100668008801A5219421E12092220521BF30870528
:10067800AD2101300605F1007108003A031D882BF1
:100688002830CE000030CF007C2001300605F10074
:100698007108003A031D882B01300605F100710826
:1006A800003A031D582B502B2830CE000030CF00C5
:1006B8007C2036080130031D0030F0007008B600B9
:1006C80070080319852BE12005219222B701B80192
:1006D800B901BA01BB01BC012408BD002508BE0050
:1006E8002608BF002708C000C101C201C301C40118
:1006F800C501C601B830CE000B30CF007C20CF2119
:10070800882BE120052192223608031D8E2BE1203B
:1007180005213D2BB70172217108013C031D962B61
:100728007008C23C03189C2B01308312B0009E2B2A
:100738008312B0013008B80030080319A62B013025
:10074800B700B42B05215A30C7006E30C8000A30F4
:10075800C90020210530CE000030CF007C208F2B2F
:10076800B90172217108013C031DBC2B7008C23C01
:100778000318C22B01308312B100C42B8312B101BC
:100788003108B8000A218C30C700C830C8001E30B4
:10079800C90020213808031DDE2BFF303902031859
:1007A800D62BB90A28303902031CDD2B0230B700DA
:1007B800E52BDF2BB9010530CE000030CF007C20BF
:1007C800B52B0521BA01C32170080319F02B03309A
:1007D800B700BB01BC01572C3A08031D222CA322E9
:1007E8000E210230C700B7217008031D1A2CAA2257
:1007F8007008B4007108B5007108FF3A031D062C93
:10080800FF3070060319132C00303502031D0E2C1F
:10081800143034020318132CA3227822142C3D22FE
:100828000530CE000030CF007C20F52B0130BA0017
:100838003230CE000030CF007C20E72B0130C700DB
:10084800B7217008B2000230C700B7217008B300A2
:10085800AA227008B4007108B5007108FF3A031D98
:10086800372CFF3070060319442C00303502031D65
:100878003F2C143034020318442CA3227822512C24
:10088800320803194A2CA3228721512C3308031953
:100898004F2C3D22512CA32285220530CE0000305A
:1008A800CF007C20E72B3708033A031DA12C052134
:1008B800FE22700803196C2CEA303C02031D662CDA
:1008C80060303B0203186B2CBB0A0319BC0A782C56
:1008D8003C08003C031D722C3B08003C0318782C94
:1008E8000130BB02031CBC0300303C02031D7E2CFC
:1008F80028303B02031C942C0430B700BB01BC0118
:100908002408BD002508BE002608BF002708C0002F
:10091800C101C201C301C401C501C6010521A12C41
:100928006E30C7009630C8002330C900D321053087
:10093800CE000030CF007C20572C3708043A031D26
:100948004C2D4608031DAB2C0130C6001A22240882
:10095800F1002508F2002608F3002708F4003D08F6
:10096800F1023E08031C3E0FF2023F08031C3F0F32
:10097800F3024008031C400FF40200307402031D08
:10098800CF2C00307302031DCF2C03307202031DDD
:10099800CF2CE8307102031CF02C2408BD00250878
:1009A800BE002608BF002708C0000A217830C10011
:1009B8000030C2000030C3000030C4002408C10762
:1009C80025080318250FC20726080318260FC30792
:1009D80027080318270FC4070030F0004406031D3A
:1009E800FF2C70084306031DFF2C70084206031DE8
:1009F800FF2C4108003A03191E2D2408F100250890
:100A0800F2002608F3002708F40044087402031DC6
:100A1800172D43087302031D172D42087202031D88
:100A2800172D41087102031C1E2D0521C101C201A9
:100A3800C301C401AA227008B4007108B500710886
:100A4800FF3A031D292DFF3070060319392D35088B
:100A5800003C031D312D34080D3C031C392D0A3090
:100A680045020318382DC50A3A2DC5010A3045023A
:100A7800031C452DE1200521922252220530B700A2
:100A88004C2D45220530CE000030CF007C20A12C13
:100A98003708053A031D562DE12005219222BF3063
:080AA80087054C2D3D2B572D55
:02400E004A2F37
:00000001FF
